{
  "_format": "hh-sol-artifact-1",
  "contractName": "stacking",
  "sourceName": "contracts/stacking.sol",
  "abi": [
    {
      "inputs": [
        {
          "internalType": "address",
          "name": "stakingToken",
          "type": "address"
        },
        {
          "internalType": "address",
          "name": "rewardsToken",
          "type": "address"
        }
      ],
      "stateMutability": "nonpayable",
      "type": "constructor"
    },
    {
      "inputs": [],
      "name": "NeedsMoreThanZero",
      "type": "error"
    },
    {
      "inputs": [],
      "name": "transactionFail",
      "type": "error"
    },
    {
      "anonymous": false,
      "inputs": [
        {
          "indexed": false,
          "internalType": "address",
          "name": "sender",
          "type": "address"
        },
        {
          "indexed": false,
          "internalType": "uint256",
          "name": "amount",
          "type": "uint256"
        }
      ],
      "name": "Claimed",
      "type": "event"
    },
    {
      "anonymous": false,
      "inputs": [
        {
          "indexed": false,
          "internalType": "address",
          "name": "sender",
          "type": "address"
        },
        {
          "indexed": false,
          "internalType": "uint256",
          "name": "amount",
          "type": "uint256"
        }
      ],
      "name": "Stacked",
      "type": "event"
    },
    {
      "anonymous": false,
      "inputs": [
        {
          "indexed": false,
          "internalType": "address",
          "name": "sender",
          "type": "address"
        },
        {
          "indexed": false,
          "internalType": "uint256",
          "name": "amount",
          "type": "uint256"
        }
      ],
      "name": "Withdrawn",
      "type": "event"
    },
    {
      "inputs": [],
      "name": "claimReward",
      "outputs": [],
      "stateMutability": "nonpayable",
      "type": "function"
    },
    {
      "inputs": [
        {
          "internalType": "address",
          "name": "account",
          "type": "address"
        }
      ],
      "name": "getStaked",
      "outputs": [
        {
          "internalType": "uint256",
          "name": "",
          "type": "uint256"
        }
      ],
      "stateMutability": "view",
      "type": "function"
    },
    {
      "inputs": [],
      "name": "rewardRate",
      "outputs": [
        {
          "internalType": "uint256",
          "name": "",
          "type": "uint256"
        }
      ],
      "stateMutability": "view",
      "type": "function"
    },
    {
      "inputs": [
        {
          "internalType": "address",
          "name": "",
          "type": "address"
        }
      ],
      "name": "s_balance",
      "outputs": [
        {
          "internalType": "uint256",
          "name": "",
          "type": "uint256"
        }
      ],
      "stateMutability": "view",
      "type": "function"
    },
    {
      "inputs": [],
      "name": "s_lastUpdated",
      "outputs": [
        {
          "internalType": "uint256",
          "name": "",
          "type": "uint256"
        }
      ],
      "stateMutability": "view",
      "type": "function"
    },
    {
      "inputs": [],
      "name": "s_rewardPerTokenStored",
      "outputs": [
        {
          "internalType": "uint256",
          "name": "",
          "type": "uint256"
        }
      ],
      "stateMutability": "view",
      "type": "function"
    },
    {
      "inputs": [
        {
          "internalType": "address",
          "name": "",
          "type": "address"
        }
      ],
      "name": "s_rewards",
      "outputs": [
        {
          "internalType": "uint256",
          "name": "",
          "type": "uint256"
        }
      ],
      "stateMutability": "view",
      "type": "function"
    },
    {
      "inputs": [],
      "name": "s_rewardsToken",
      "outputs": [
        {
          "internalType": "contract IERC20",
          "name": "",
          "type": "address"
        }
      ],
      "stateMutability": "view",
      "type": "function"
    },
    {
      "inputs": [],
      "name": "s_stakingToken",
      "outputs": [
        {
          "internalType": "contract IERC20",
          "name": "",
          "type": "address"
        }
      ],
      "stateMutability": "view",
      "type": "function"
    },
    {
      "inputs": [
        {
          "internalType": "address",
          "name": "",
          "type": "address"
        }
      ],
      "name": "s_userRewardPerTokenPaid",
      "outputs": [
        {
          "internalType": "uint256",
          "name": "",
          "type": "uint256"
        }
      ],
      "stateMutability": "view",
      "type": "function"
    },
    {
      "inputs": [
        {
          "internalType": "uint256",
          "name": "amount",
          "type": "uint256"
        }
      ],
      "name": "stack",
      "outputs": [],
      "stateMutability": "nonpayable",
      "type": "function"
    },
    {
      "inputs": [
        {
          "internalType": "uint256",
          "name": "amount",
          "type": "uint256"
        }
      ],
      "name": "withdraw",
      "outputs": [],
      "stateMutability": "nonpayable",
      "type": "function"
    }
  ],
  "bytecode": "0x608060405260646009553480156200001657600080fd5b50604051620013d8380380620013d883398181016040528101906200003c919062000138565b600160008190555081600160006101000a81548173ffffffffffffffffffffffffffffffffffffffff021916908373ffffffffffffffffffffffffffffffffffffffff16021790555080600260006101000a81548173ffffffffffffffffffffffffffffffffffffffff021916908373ffffffffffffffffffffffffffffffffffffffff16021790555050506200017f565b600080fd5b600073ffffffffffffffffffffffffffffffffffffffff82169050919050565b60006200010082620000d3565b9050919050565b6200011281620000f3565b81146200011e57600080fd5b50565b600081519050620001328162000107565b92915050565b60008060408385031215620001525762000151620000ce565b5b6000620001628582860162000121565b9250506020620001758582860162000121565b9150509250929050565b611249806200018f6000396000f3fe608060405234801561001057600080fd5b50600436106100b45760003560e01c8063adca9b7211610071578063adca9b721461017d578063b88a802f1461019b578063bea08151146101a5578063dc9031c4146101d5578063e7394daf146101f1578063f245ace414610221576100b4565b80630bd21c56146100b95780632e1a7d4d146100d7578063304ac91b146100f3578063399080ec1461011157806378505077146101415780637b0a47ee1461015f575b600080fd5b6100c1610251565b6040516100ce9190610da5565b60405180910390f35b6100f160048036038101906100ec9190610dfb565b610277565b005b6100fb6105bb565b6040516101089190610e37565b60405180910390f35b61012b60048036038101906101269190610e90565b6105c1565b6040516101389190610e37565b60405180910390f35b61014961060a565b6040516101569190610e37565b60405180910390f35b610167610610565b6040516101749190610e37565b60405180910390f35b610185610616565b6040516101929190610da5565b60405180910390f35b6101a361063c565b005b6101bf60048036038101906101ba9190610e90565b610897565b6040516101cc9190610e37565b60405180910390f35b6101ef60048036038101906101ea9190610dfb565b6108af565b005b61020b60048036038101906102069190610e90565b610b73565b6040516102189190610e37565b60405180910390f35b61023b60048036038101906102369190610e90565b610b8b565b6040516102489190610e37565b60405180910390f35b600260009054906101000a900473ffffffffffffffffffffffffffffffffffffffff1681565b80600081116102b2576040517ff45911f000000000000000000000000000000000000000000000000000000000815260040160405180910390fd5b600260005414156102f8576040517f08c379a00000000000000000000000000000000000000000000000000000000081526004016102ef90610f1a565b60405180910390fd5b600260008190555033610309610ba3565b6007819055504260088190555061031f81610c07565b600560008373ffffffffffffffffffffffffffffffffffffffff1673ffffffffffffffffffffffffffffffffffffffff16815260200190815260200160002081905550600754600660008373ffffffffffffffffffffffffffffffffffffffff1673ffffffffffffffffffffffffffffffffffffffff1681526020019081526020016000208190555082600460003373ffffffffffffffffffffffffffffffffffffffff1673ffffffffffffffffffffffffffffffffffffffff16815260200190815260200160002054101561042a576040517f08c379a000000000000000000000000000000000000000000000000000000000815260040161042190610fac565b60405180910390fd5b82600460003373ffffffffffffffffffffffffffffffffffffffff1673ffffffffffffffffffffffffffffffffffffffff16815260200190815260200160002060008282546104799190610ffb565b9250508190555082600360008282546104929190610ffb565b925050819055507f7084f5476618d8e60b11ef0d7d3f06914655adb8793e28ff7f018d4c76d505d533846040516104ca92919061103e565b60405180910390a16000600160009054906101000a900473ffffffffffffffffffffffffffffffffffffffff1673ffffffffffffffffffffffffffffffffffffffff1663a9059cbb33866040518363ffffffff1660e01b815260040161053192919061103e565b6020604051808303816000875af1158015610550573d6000803e3d6000fd5b505050506040513d601f19601f82011682018060405250810190610574919061109f565b9050806105ad576040517f6dfb889700000000000000000000000000000000000000000000000000000000815260040160405180910390fd5b505060016000819055505050565b60075481565b6000600460008373ffffffffffffffffffffffffffffffffffffffff1673ffffffffffffffffffffffffffffffffffffffff168152602001908152602001600020549050919050565b60085481565b60095481565b600160009054906101000a900473ffffffffffffffffffffffffffffffffffffffff1681565b60026000541415610682576040517f08c379a000000000000000000000000000000000000000000000000000000000815260040161067990610f1a565b60405180910390fd5b600260008190555033610693610ba3565b600781905550426008819055506106a981610c07565b600560008373ffffffffffffffffffffffffffffffffffffffff1673ffffffffffffffffffffffffffffffffffffffff16815260200190815260200160002081905550600754600660008373ffffffffffffffffffffffffffffffffffffffff1673ffffffffffffffffffffffffffffffffffffffff168152602001908152602001600020819055506000600560003373ffffffffffffffffffffffffffffffffffffffff1673ffffffffffffffffffffffffffffffffffffffff1681526020019081526020016000205490507fd8138f8a3f377c5259ca548e70e4c2de94f129f5a11036a15b69513cba2b426a33826040516107a792919061103e565b60405180910390a16000600160009054906101000a900473ffffffffffffffffffffffffffffffffffffffff1673ffffffffffffffffffffffffffffffffffffffff1663a9059cbb33846040518363ffffffff1660e01b815260040161080e92919061103e565b6020604051808303816000875af115801561082d573d6000803e3d6000fd5b505050506040513d601f19601f82011682018060405250810190610851919061109f565b90508061088a576040517f6dfb889700000000000000000000000000000000000000000000000000000000815260040160405180910390fd5b5050506001600081905550565b60056020528060005260406000206000915090505481565b80600081116108ea576040517ff45911f000000000000000000000000000000000000000000000000000000000815260040160405180910390fd5b60026000541415610930576040517f08c379a000000000000000000000000000000000000000000000000000000000815260040161092790610f1a565b60405180910390fd5b600260008190555033610941610ba3565b6007819055504260088190555061095781610c07565b600560008373ffffffffffffffffffffffffffffffffffffffff1673ffffffffffffffffffffffffffffffffffffffff16815260200190815260200160002081905550600754600660008373ffffffffffffffffffffffffffffffffffffffff1673ffffffffffffffffffffffffffffffffffffffff1681526020019081526020016000208190555082600460003373ffffffffffffffffffffffffffffffffffffffff1673ffffffffffffffffffffffffffffffffffffffff1681526020019081526020016000206000828254610a2f91906110cc565b925050819055508260036000828254610a4891906110cc565b925050819055507fcd4c5e2af7b60703fbb8818059580faaa30188d0e412ee41300d0ec6daf7453f3384604051610a8092919061103e565b60405180910390a16000600160009054906101000a900473ffffffffffffffffffffffffffffffffffffffff1673ffffffffffffffffffffffffffffffffffffffff166323b872dd3330876040518463ffffffff1660e01b8152600401610ae993929190611122565b6020604051808303816000875af1158015610b08573d6000803e3d6000fd5b505050506040513d601f19601f82011682018060405250810190610b2c919061109f565b905080610b65576040517f6dfb889700000000000000000000000000000000000000000000000000000000815260040160405180910390fd5b505060016000819055505050565b60046020528060005260406000206000915090505481565b60066020528060005260406000206000915090505481565b6000806003541415610bb9576007549050610c04565b600354670de0b6b3a764000060095460085442610bd69190610ffb565b610be09190611159565b610bea9190611159565b610bf491906111e2565b600754610c0191906110cc565b90505b90565b600080600460008473ffffffffffffffffffffffffffffffffffffffff1673ffffffffffffffffffffffffffffffffffffffff1681526020019081526020016000205490506000600660008573ffffffffffffffffffffffffffffffffffffffff1673ffffffffffffffffffffffffffffffffffffffff1681526020019081526020016000205490506000610c9a610ba3565b90506000600560008773ffffffffffffffffffffffffffffffffffffffff1673ffffffffffffffffffffffffffffffffffffffff168152602001908152602001600020549050600081670de0b6b3a76400008585610cf89190610ffb565b87610d039190611159565b610d0d91906111e2565b610d1791906110cc565b90508095505050505050919050565b600073ffffffffffffffffffffffffffffffffffffffff82169050919050565b6000819050919050565b6000610d6b610d66610d6184610d26565b610d46565b610d26565b9050919050565b6000610d7d82610d50565b9050919050565b6000610d8f82610d72565b9050919050565b610d9f81610d84565b82525050565b6000602082019050610dba6000830184610d96565b92915050565b600080fd5b6000819050919050565b610dd881610dc5565b8114610de357600080fd5b50565b600081359050610df581610dcf565b92915050565b600060208284031215610e1157610e10610dc0565b5b6000610e1f84828501610de6565b91505092915050565b610e3181610dc5565b82525050565b6000602082019050610e4c6000830184610e28565b92915050565b6000610e5d82610d26565b9050919050565b610e6d81610e52565b8114610e7857600080fd5b50565b600081359050610e8a81610e64565b92915050565b600060208284031215610ea657610ea5610dc0565b5b6000610eb484828501610e7b565b91505092915050565b600082825260208201905092915050565b7f5265656e7472616e637947756172643a207265656e7472616e742063616c6c00600082015250565b6000610f04601f83610ebd565b9150610f0f82610ece565b602082019050919050565b60006020820190508181036000830152610f3381610ef7565b9050919050565b7f63757272656e742062616c616e6365206973206c617373207468616e20616d6f60008201527f756e7420636c61696d6564000000000000000000000000000000000000000000602082015250565b6000610f96602b83610ebd565b9150610fa182610f3a565b604082019050919050565b60006020820190508181036000830152610fc581610f89565b9050919050565b7f4e487b7100000000000000000000000000000000000000000000000000000000600052601160045260246000fd5b600061100682610dc5565b915061101183610dc5565b92508282101561102457611023610fcc565b5b828203905092915050565b61103881610e52565b82525050565b6000604082019050611053600083018561102f565b6110606020830184610e28565b9392505050565b60008115159050919050565b61107c81611067565b811461108757600080fd5b50565b60008151905061109981611073565b92915050565b6000602082840312156110b5576110b4610dc0565b5b60006110c38482850161108a565b91505092915050565b60006110d782610dc5565b91506110e283610dc5565b9250827fffffffffffffffffffffffffffffffffffffffffffffffffffffffffffffffff0382111561111757611116610fcc565b5b828201905092915050565b6000606082019050611137600083018661102f565b611144602083018561102f565b6111516040830184610e28565b949350505050565b600061116482610dc5565b915061116f83610dc5565b9250817fffffffffffffffffffffffffffffffffffffffffffffffffffffffffffffffff04831182151516156111a8576111a7610fcc565b5b828202905092915050565b7f4e487b7100000000000000000000000000000000000000000000000000000000600052601260045260246000fd5b60006111ed82610dc5565b91506111f883610dc5565b925082611208576112076111b3565b5b82820490509291505056fea26469706673582212204a8200ecf15c6818cf7c5788a2a2f4189c51208fe9d40a775039d2c908e7c91464736f6c634300080b0033",
  "linkReferences": {},
  "deployedLinkReferences": {}
}